{
  "address": "0xe86f21119e50Dc45655F5D15ec2350e341a151E2",
  "abi": [
    {
      "inputs": [
        {
          "internalType": "contract ITotemToken",
          "name": "_totemToken",
          "type": "address"
        },
        {
          "internalType": "contract IRewardManager",
          "name": "_rewardManager",
          "type": "address"
        },
        {
          "internalType": "address",
          "name": "_swapRouter",
          "type": "address"
        },
        {
          "internalType": "address",
          "name": "_usdToken",
          "type": "address"
        },
        {
          "internalType": "address",
          "name": "_stakingPoolImplementation",
          "type": "address"
        },
        {
          "internalType": "address",
          "name": "_superAdmin",
          "type": "address"
        }
      ],
      "stateMutability": "nonpayable",
      "type": "constructor"
    },
    {
      "anonymous": false,
      "inputs": [],
      "name": "NewStakingPoolImplemnetationWasSet",
      "type": "event"
    },
    {
      "anonymous": false,
      "inputs": [],
      "name": "NewSuperAdminWasSet",
      "type": "event"
    },
    {
      "anonymous": false,
      "inputs": [
        {
          "indexed": true,
          "internalType": "address",
          "name": "pool",
          "type": "address"
        },
        {
          "indexed": false,
          "internalType": "string",
          "name": "wrappedTokenSymbol",
          "type": "string"
        },
        {
          "indexed": false,
          "internalType": "string",
          "name": "poolType",
          "type": "string"
        },
        {
          "indexed": false,
          "internalType": "uint256[12]",
          "name": "variables",
          "type": "uint256[12]"
        },
        {
          "indexed": false,
          "internalType": "uint256[8]",
          "name": "ranks",
          "type": "uint256[8]"
        },
        {
          "indexed": false,
          "internalType": "uint256[8]",
          "name": "percentages",
          "type": "uint256[8]"
        },
        {
          "indexed": false,
          "internalType": "bool",
          "name": "isEnhancedEnabled",
          "type": "bool"
        }
      ],
      "name": "PoolCreated",
      "type": "event"
    },
    {
      "anonymous": false,
      "inputs": [
        {
          "indexed": true,
          "internalType": "address",
          "name": "account",
          "type": "address"
        }
      ],
      "name": "PoolCreatorAdded",
      "type": "event"
    },
    {
      "anonymous": false,
      "inputs": [
        {
          "indexed": true,
          "internalType": "address",
          "name": "account",
          "type": "address"
        }
      ],
      "name": "PoolCreatorRemoved",
      "type": "event"
    },
    {
      "inputs": [
        {
          "internalType": "address",
          "name": "account",
          "type": "address"
        }
      ],
      "name": "addPoolCreator",
      "outputs": [],
      "stateMutability": "nonpayable",
      "type": "function"
    },
    {
      "inputs": [
        {
          "internalType": "address",
          "name": "_oracleContract",
          "type": "address"
        },
        {
          "internalType": "address",
          "name": "_wrappedTokenContract",
          "type": "address"
        },
        {
          "internalType": "string",
          "name": "_wrappedTokenSymbol",
          "type": "string"
        },
        {
          "internalType": "string",
          "name": "_poolType",
          "type": "string"
        },
        {
          "internalType": "uint256[12]",
          "name": "_variables",
          "type": "uint256[12]"
        },
        {
          "internalType": "uint256[8]",
          "name": "_ranks",
          "type": "uint256[8]"
        },
        {
          "internalType": "uint256[8]",
          "name": "_percentages",
          "type": "uint256[8]"
        },
        {
          "internalType": "bool",
          "name": "isEnhancedEnabled",
          "type": "bool"
        }
      ],
      "name": "createPoolProxy",
      "outputs": [
        {
          "internalType": "address",
          "name": "",
          "type": "address"
        }
      ],
      "stateMutability": "nonpayable",
      "type": "function"
    },
    {
      "inputs": [
        {
          "internalType": "address",
          "name": "account",
          "type": "address"
        }
      ],
      "name": "isPoolCreator",
      "outputs": [
        {
          "internalType": "bool",
          "name": "",
          "type": "bool"
        }
      ],
      "stateMutability": "view",
      "type": "function"
    },
    {
      "inputs": [],
      "name": "minimumStakeAmount",
      "outputs": [
        {
          "internalType": "uint256",
          "name": "",
          "type": "uint256"
        }
      ],
      "stateMutability": "view",
      "type": "function"
    },
    {
      "inputs": [],
      "name": "renouncePoolCreator",
      "outputs": [],
      "stateMutability": "nonpayable",
      "type": "function"
    },
    {
      "inputs": [],
      "name": "rewardManager",
      "outputs": [
        {
          "internalType": "contract IRewardManager",
          "name": "",
          "type": "address"
        }
      ],
      "stateMutability": "view",
      "type": "function"
    },
    {
      "inputs": [
        {
          "internalType": "uint256",
          "name": "newStakingPoolTaxRate",
          "type": "uint256"
        }
      ],
      "name": "setDefaultTaxRate",
      "outputs": [],
      "stateMutability": "nonpayable",
      "type": "function"
    },
    {
      "inputs": [
        {
          "internalType": "address",
          "name": "_ImpAdr",
          "type": "address"
        }
      ],
      "name": "setNewStakingPoolImplementationAdr",
      "outputs": [],
      "stateMutability": "nonpayable",
      "type": "function"
    },
    {
      "inputs": [
        {
          "internalType": "address",
          "name": "_superAdmin",
          "type": "address"
        }
      ],
      "name": "setNewSuperAdmin",
      "outputs": [],
      "stateMutability": "nonpayable",
      "type": "function"
    },
    {
      "inputs": [
        {
          "internalType": "address",
          "name": "_swapRouter",
          "type": "address"
        }
      ],
      "name": "setSwapRouter",
      "outputs": [],
      "stateMutability": "nonpayable",
      "type": "function"
    },
    {
      "inputs": [],
      "name": "stakingPoolImplementationAdr",
      "outputs": [
        {
          "internalType": "address",
          "name": "",
          "type": "address"
        }
      ],
      "stateMutability": "view",
      "type": "function"
    },
    {
      "inputs": [],
      "name": "stakingPoolTaxRate",
      "outputs": [
        {
          "internalType": "uint256",
          "name": "",
          "type": "uint256"
        }
      ],
      "stateMutability": "view",
      "type": "function"
    },
    {
      "inputs": [],
      "name": "superAdmin",
      "outputs": [
        {
          "internalType": "address",
          "name": "",
          "type": "address"
        }
      ],
      "stateMutability": "view",
      "type": "function"
    },
    {
      "inputs": [],
      "name": "swapRouter",
      "outputs": [
        {
          "internalType": "address",
          "name": "",
          "type": "address"
        }
      ],
      "stateMutability": "view",
      "type": "function"
    },
    {
      "inputs": [],
      "name": "totemToken",
      "outputs": [
        {
          "internalType": "contract ITotemToken",
          "name": "",
          "type": "address"
        }
      ],
      "stateMutability": "view",
      "type": "function"
    },
    {
      "inputs": [],
      "name": "usdToken",
      "outputs": [
        {
          "internalType": "address",
          "name": "",
          "type": "address"
        }
      ],
      "stateMutability": "view",
      "type": "function"
    }
  ],
  "transactionHash": "0x275dda69cb700ba504b5f00ed85e8d2bead3fd5da6fbc9ed815277f1ea31f750",
  "args": [
    "0xf2cf56fBE1Ae8E40f0e0D8672305c3bB115625A2",
    "0x9440B61bA309f0B31e50F07e3e6EE5C706Fb3230",
    "0x9Ac64Cc6e4415144C455BD8E4837Fea55603e5c3",
    "0x78867bbeef44f2326bf8ddd1941a4439382ef2a7",
    "0x3414be9304955208D3e7fC130a1A420Ddc7Dd9dc",
    "0x5364E3557572bd5D5903C0e9C21BE359F2Eac1dA"
  ],
  "solcInputHash": "135b942a636eca98288f0905f59fa9e0",
  "bytecode": "0x60806040523480156200001157600080fd5b50604051620038a9380380620038a98339810160408190526200003491620001f8565b6200004862000042620000da565b620000de565b6200006157620000616200005b620000da565b62000101565b600180546001600160a01b03199081166001600160a01b039889161790915560028054821696881696909617909555600580548616948716949094179093556006805485169286169290921790915560048054841691851691909117905560038054909216921691909117905561012c6007556200031d565b3390565b6000620000fb8260006200015360201b6200067f1790919060201c565b92915050565b6200011c816000620001a760201b620006c71790919060201c565b6040516001600160a01b038216907fac89bb7b3d0c5a763a97f31bc75f8faee00426e7b235f02ca76897d55caf7b6190600090a250565b60006001600160a01b038216620001875760405162461bcd60e51b81526004016200017e90620002c2565b60405180910390fd5b506001600160a01b03166000908152602091909152604090205460ff1690565b620001b3828262000153565b15620001d35760405162461bcd60e51b81526004016200017e906200028b565b6001600160a01b0316600090815260209190915260409020805460ff19166001179055565b60008060008060008060c0878903121562000211578182fd5b86516200021e8162000304565b6020880151909650620002318162000304565b6040880151909550620002448162000304565b6060880151909450620002578162000304565b60808801519093506200026a8162000304565b60a08801519092506200027d8162000304565b809150509295509295509295565b6020808252601f908201527f526f6c65733a206163636f756e7420616c72656164792068617320726f6c6500604082015260600190565b60208082526022908201527f526f6c65733a206163636f756e7420697320746865207a65726f206164647265604082015261737360f01b606082015260800190565b6001600160a01b03811681146200031a57600080fd5b50565b61357c806200032d6000396000f3fe608060405234801561001057600080fd5b50600436106101005760003560e01c8063b6c3ef2711610097578063d53b245b11610066578063d53b245b146101d9578063e281cc7e146101ec578063e8153c93146101f4578063f897a22b146101fc57610100565b8063b6c3ef27146101a3578063bc8a0669146101b6578063c31c9c07146101be578063ceba6f8d146101c657610100565b806349a84429116100d357806349a84429146101555780636b036f45146101685780638c2d741c146101705780639a94775d1461018357610100565b80630f4ef8a61461010557806329575f6a14610123578063412736571461012b578063441f5c6514610140575b600080fd5b61010d610204565b60405161011a9190610bc5565b60405180910390f35b61010d610213565b61013e6101393660046109d8565b610222565b005b61014861029a565b60405161011a9190610ee6565b61013e6101633660046109d8565b6102a0565b61014861033c565b61013e61017e3660046109d8565b610342565b6101966101913660046109d8565b610375565b60405161011a9190610bd9565b61013e6101b13660046109d8565b610389565b61010d6103f7565b61010d610406565b61010d6101d43660046109f9565b610415565b61013e6101e7366004610b10565b610602565b61013e61064f565b61010d610661565b61010d610670565b6002546001600160a01b031681565b6003546001600160a01b031681565b61022d610191610713565b6102525760405162461bcd60e51b815260040161024990610da9565b60405180910390fd5b6001600160a01b0381166102785760405162461bcd60e51b815260040161024990610d8b565b600580546001600160a01b0319166001600160a01b0392909216919091179055565b60075481565b6102ab610191610713565b6102c75760405162461bcd60e51b815260040161024990610da9565b6004546001600160a01b03828116911614156102f55760405162461bcd60e51b815260040161024990610e06565b600480546001600160a01b0319166001600160a01b0383161790556040517f3199ab49607559567913d4714288fee1e692c31829ed4722a6fd064adbdc5b5490600090a150565b60085481565b61034d610191610713565b6103695760405162461bcd60e51b815260040161024990610da9565b61037281610717565b50565b6000610381818361067f565b90505b919050565b610394610191610713565b6103b05760405162461bcd60e51b815260040161024990610da9565b600380546001600160a01b0319166001600160a01b0383161790556040517fb25686d5de2544aa0f0235ea99dd20e962286bc9cec2fb371b226a637be461f790600090a150565b6004546001600160a01b031681565b6005546001600160a01b031681565b6000610422610191610713565b61043e5760405162461bcd60e51b815260040161024990610da9565b610120850151610452576007546101208601525b6000604051610460906108c2565b604051809103906000f08015801561047c573d6000803e3d6000fd5b5060048054604051631b2ce7f360e11b815292935083926001600160a01b0380851693633659cfe6936104b29392169101610bc5565b600060405180830381600087803b1580156104cc57600080fd5b505af11580156104e0573d6000803e3d6000fd5b5050604080516080810182526005546001600160a01b039081168252600654811660208301528f811692820192909252908d166060820152915061052c9050818b8b8b8b8b8b8a610759565b60035460405163f2fde38b60e01b81526001600160a01b038581169263f2fde38b9261055e9290911690600401610bc5565b600060405180830381600087803b15801561057857600080fd5b505af115801561058c573d6000803e3d6000fd5b505060025460405163d914cd4b60e01b81526001600160a01b03909116925063d914cd4b91506105c0908590600401610bc5565b600060405180830381600087803b1580156105da57600080fd5b505af11580156105ee573d6000803e3d6000fd5b50939e9d5050505050505050505050505050565b61060d610191610713565b6106295760405162461bcd60e51b815260040161024990610da9565b612710811061064a5760405162461bcd60e51b815260040161024990610d44565b600755565b61065f61065a610713565b610838565b565b6001546001600160a01b031681565b6006546001600160a01b031681565b60006001600160a01b0382166106a75760405162461bcd60e51b815260040161024990610ea4565b506001600160a01b03166000908152602091909152604090205460ff1690565b6106d1828261067f565b156106ee5760405162461bcd60e51b815260040161024990610d0d565b6001600160a01b0316600090815260209190915260409020805460ff19166001179055565b3390565b6107226000826106c7565b6040516001600160a01b038216907fac89bb7b3d0c5a763a97f31bc75f8faee00426e7b235f02ca76897d55caf7b6190600090a250565b6001546002546001600160a01b038084169263869eb310928b928b9281169116610781610713565b8e8c8c8c8c6040518b63ffffffff1660e01b81526004016107ab9a99989796959493929190610c4c565b600060405180830381600087803b1580156107c557600080fd5b505af11580156107d9573d6000803e3d6000fd5b505050506000819050806001600160a01b03167fd69cf3c5f6280df773a744806dc6920bc09109ef4a352c0846f5ef35965dca1289898989898960405161082596959493929190610be4565b60405180910390a2505050505050505050565b61084360008261087a565b6040516001600160a01b038216907f2bc71cc60b543df5fdd80ef5a45e1cdb344843769b649e9d901de3be24aeb24e90600090a250565b610884828261067f565b6108a05760405162461bcd60e51b815260040161024990610e63565b6001600160a01b0316600090815260209190915260409020805460ff19169055565b6125f680610f5183390190565b80356001600160a01b038116811461038457600080fd5b600082601f8301126108f6578081fd5b60405161010080820182811067ffffffffffffffff8211171561091b5761091b610f3a565b604052818482810187101561092e578485fd5b8492505b600883101561095257803582526001929092019160209182019101610932565b509195945050505050565b8035801515811461038457600080fd5b600082601f83011261097d578081fd5b813567ffffffffffffffff81111561099757610997610f3a565b6109aa601f8201601f1916602001610eef565b8181528460208386010111156109be578283fd5b816020850160208301379081016020019190915292915050565b6000602082840312156109e9578081fd5b6109f2826108cf565b9392505050565b600080600080600080600080610420898b031215610a15578384fd5b610a1e896108cf565b97506020610a2d818b016108cf565b975060408a013567ffffffffffffffff80821115610a49578687fd5b610a558d838e0161096d565b985060608c0135915080821115610a6a578687fd5b50610a778c828d0161096d565b9650508a609f8b0112610a88578485fd5b610a9a610a95600c610f19565b610eef565b8060808c016102008d018e811115610ab0578889fd5b885b600c811015610acf57823585529385019391850191600101610ab2565b50829850610add8f826108e6565b97505050505050610af28a6103008b016108e6565b9150610b016104008a0161095d565b90509295985092959890939650565b600060208284031215610b21578081fd5b5035919050565b8060005b600c811015610b4b578151845260209384019390910190600101610b2c565b50505050565b8060005b6008811015610b4b578151845260209384019390910190600101610b55565b15159052565b60008151808452815b81811015610b9f57602081850181015186830182015201610b83565b81811115610bb05782602083870101525b50601f01601f19169290920160200192915050565b6001600160a01b0391909116815260200190565b901515815260200190565b60006103e0808352610bf88184018a610b7a565b90508281036020840152610c0c8189610b7a565b915050610c1c6040830187610b28565b610c2a6101c0830186610b51565b610c386102c0830185610b51565b8215156103c0830152979650505050505050565b60006104c0808352610c608184018e610b7a565b9050602083820381850152610c75828e610b7a565b6001600160a01b038d811660408701528c811660608701528b81166080870152909350915060a084018960005b6004811015610cc1578151851683529183019190830190600101610ca2565b5050505050610cd4610120830187610b28565b610ce26102a0830186610b51565b610cf06103a0830185610b51565b610cfe6104a0830184610b74565b9b9a5050505050505050505050565b6020808252601f908201527f526f6c65733a206163636f756e7420616c72656164792068617320726f6c6500604082015260600190565b60208082526027908201527f303432302054617820636f6e6e6f74206265206f7665722031303025202831306040820152663030302042502960c81b606082015260800190565b6020808252600490820152630303431360e41b604082015260600190565b6020808252603a908201527f506f6f6c43726561746f72526f6c653a2063616c6c657220646f6573206e6f7460408201527f20686176652074686520506f6f6c43726561746f7220726f6c65000000000000606082015260800190565b6020808252603d908201527f5468697320616464726573732069732074686520696d706c656d656e7461746960408201527f6f6e207468617420697320616c7265616479206265696e672075736564000000606082015260800190565b60208082526021908201527f526f6c65733a206163636f756e7420646f6573206e6f74206861766520726f6c6040820152606560f81b606082015260800190565b60208082526022908201527f526f6c65733a206163636f756e7420697320746865207a65726f206164647265604082015261737360f01b606082015260800190565b90815260200190565b60405181810167ffffffffffffffff81118282101715610f1157610f11610f3a565b604052919050565b600067ffffffffffffffff821115610f3357610f33610f3a565b5060200290565b634e487b7160e01b600052604160045260246000fdfe608060405234801561001057600080fd5b50606b80546001600160a01b03191633179055608f805460ff60301b191666010000000000001790556125ae806100486000396000f3fe60806040526004361061031e5760003560e01c80638e15f473116101ab578063d7efb6b7116100f7578063f0141d8411610095578063f3d9dc0d1161006f578063f3d9dc0d14610868578063f5e96fc91461087d578063f8eeed6214610892578063fd5e6dd1146108a757610325565b8063f0141d84146107f8578063f1b17a8b1461081a578063f2fde38b1461084857610325565b8063e425df8c116100d1578063e425df8c146107a4578063e68b52e7146107b9578063e8153c93146107ce578063eb850ae1146107e357610325565b8063d7efb6b714610735578063de09ee201461074a578063e08186691461077857610325565b8063a8f7b34611610164578063bece75321161013e578063bece7532146106e1578063c1201054146106f6578063c6c1decd1461070b578063d025188b1461072057610325565b8063a8f7b34614610697578063aa7bcb57146106b7578063b1dd61b6146106cc57610325565b80638e15f4731461060c57806395c2ba4714610621578063996c6cc314610636578063a08b2c791461064b578063a35ef3a714610660578063a4e2d6341461068257610325565b80636847d0c51161026a578063785fa62711610223578063850fa7cb116101fd578063850fa7cb1461058d578063869eb310146105c25780638cf0e21e146105e25780638da5cb5b146105f757610325565b8063785fa6271461054e5780637f2b6a0d14610563578063817b1cd21461057857610325565b80636847d0c5146104d05780636b036f45146104e5578063715018a6146104fa578063725c9c491461050f57806373f3170314610524578063785df1f81461053957610325565b80633659cfe6116102d75780634bc4eeb2116102b15780634bc4eeb21461047c5780634e8bfdaa1461049157806351eacbf0146104a657806367fc9138146104bb57610325565b80633659cfe61461041c57806337c4f6a41461043c5780633fcdd82c1461045c57610325565b80630d6680871461035f5780630f4ef8a61461038a57806322f3e2d4146103ac578063238a6c74146103ce57806328016f9a146103f05780632aa8195e1461040757610325565b3661032557005b606a546001600160a01b03168061033b57600080fd5b3660008037600080366000845af43d6000803e80801561035a573d6000f35b3d6000fd5b34801561036b57600080fd5b506103746108c7565b604051610381919061238e565b60405180910390f35b34801561039657600080fd5b5061039f6108cd565b6040516103819190612049565b3480156103b857600080fd5b506103c16108dc565b6040516103819190612089565b3480156103da57600080fd5b506103e36108eb565b6040516103819190612094565b3480156103fc57600080fd5b50610405610979565b005b34801561041357600080fd5b5061039f6109d6565b34801561042857600080fd5b50610405610437366004611d40565b6109e5565b34801561044857600080fd5b50610405610457366004611d40565b610a7f565b34801561046857600080fd5b50610374610477366004611f66565b610b10565b34801561048857600080fd5b506103c1610bd4565b34801561049d57600080fd5b50610374610be2565b3480156104b257600080fd5b50610374610be8565b3480156104c757600080fd5b50610405610bee565b3480156104dc57600080fd5b50610374610c3c565b3480156104f157600080fd5b50610374610c42565b34801561050657600080fd5b50610405610c48565b34801561051b57600080fd5b5061039f610c93565b34801561053057600080fd5b50610374610ca2565b34801561054557600080fd5b50610374610ca8565b34801561055a57600080fd5b50610374610cae565b34801561056f57600080fd5b506103c1610cb4565b34801561058457600080fd5b50610374610cc5565b34801561059957600080fd5b506105ad6105a8366004611da6565b610ccb565b604051610381999897969594939291906123c6565b3480156105ce57600080fd5b506104056105dd366004611e78565b610d39565b3480156105ee57600080fd5b506103c16112fa565b34801561060357600080fd5b5061039f61130a565b34801561061857600080fd5b50610374611319565b34801561062d57600080fd5b506103746113c0565b34801561064257600080fd5b5061039f6113c5565b34801561065757600080fd5b506103c16113d4565b34801561066c57600080fd5b506106756113dd565b6040516103819190612076565b34801561068e57600080fd5b506103c161148c565b3480156106a357600080fd5b506104056106b2366004611d5c565b61149c565b3480156106c357600080fd5b50610374611551565b3480156106d857600080fd5b506103e3611557565b3480156106ed57600080fd5b5061039f611564565b34801561070257600080fd5b50610374611573565b34801561071757600080fd5b5061039f6115f9565b34801561072c57600080fd5b50610374611608565b34801561074157600080fd5b506103c161160e565b34801561075657600080fd5b5061076a610765366004611f66565b611620565b60405161038192919061205d565b34801561078457600080fd5b5061078d611658565b6040516103819b9a99989796959493929190612409565b3480156107b057600080fd5b50610374611685565b3480156107c557600080fd5b5061037461168b565b3480156107da57600080fd5b5061039f611691565b3480156107ef57600080fd5b506103746116a0565b34801561080457600080fd5b5061080d6116a6565b604051610381919061245b565b34801561082657600080fd5b5061083a610835366004611f66565b61172f565b6040516103819291906123b8565b34801561085457600080fd5b50610405610863366004611d40565b61175d565b34801561087457600080fd5b506103746117ce565b34801561088957600080fd5b5061039f6117d4565b34801561089e57600080fd5b506103746117e3565b3480156108b357600080fd5b5061076a6108c2366004611f66565b6117e9565b60815481565b607c546001600160a01b031681565b608f5462010000900460ff1681565b607e80546108f8906124e1565b80601f0160208091040260200160405190810160405280929190818152602001828054610924906124e1565b80156109715780601f1061094657610100808354040283529160200191610971565b820191906000526020600020905b81548152906001019060200180831161095457829003601f168201915b505050505081565b6109816117f9565b6001600160a01b031661099261130a565b6001600160a01b0316146109c15760405162461bcd60e51b81526004016109b890612261565b60405180910390fd5b608f805460ff60301b1916600160301b179055565b606a546001600160a01b031681565b606b546001600160a01b03163314610a0f5760405162461bcd60e51b81526004016109b890612357565b608f54600160301b900460ff16610a385760405162461bcd60e51b81526004016109b8906120e7565b606a546001600160a01b0382811691161415610a665760405162461bcd60e51b81526004016109b8906121dc565b610a6f816117fd565b50608f805460ff60301b19169055565b600054610100900460ff1680610a98575060005460ff16155b610ab45760405162461bcd60e51b81526004016109b890612213565b600054610100900460ff16158015610adf576000805460ff1961ff0019909116610100171660011790555b606580546001600160a01b0319166001600160a01b0384161790558015610b0c576000805461ff00191690555b5050565b60675460009081906001600160a01b031663d06ca61f84610b2f6113dd565b6040518363ffffffff1660e01b8152600401610b4c929190612397565b60006040518083038186803b158015610b6457600080fd5b505afa158015610b78573d6000803e3d6000fd5b505050506040513d6000823e601f3d908101601f19168201604052610ba09190810190611dd1565b905080600181518110610bc357634e487b7160e01b600052603260045260246000fd5b60200260200101519150505b919050565b608f54610100900460ff1681565b60825481565b60835481565b610bf66117f9565b6001600160a01b0316610c0761130a565b6001600160a01b031614610c2d5760405162461bcd60e51b81526004016109b890612261565b608f805460ff60301b19169055565b60875481565b60885481565b610c506117f9565b6001600160a01b0316610c6161130a565b6001600160a01b031614610c875760405162461bcd60e51b81526004016109b890612261565b610c916000611844565b565b6067546001600160a01b031690565b60865481565b60905481565b60855481565b608f54640100000000900460ff1681565b60895481565b607a6020528160005260406000208181548110610ce757600080fd5b6000918252602090912060089091020180546001820154600283015460038401546004850154600586015460068701546007909701549598509396509194909391929160ff8082169161010090041689565b600054610100900460ff1680610d52575060005460ff16155b610d6e5760405162461bcd60e51b81526004016109b890612213565b600054610100900460ff16158015610d99576000805460ff1961ff0019909116610100171660011790555b606b546001600160a01b03163314610dc35760405162461bcd60e51b81526004016109b890612357565b610dcb611896565b610dd361191a565b6040860151610de190610a7f565b855160208701516060880151610df892919061149c565b84514210610e185760405162461bcd60e51b81526004016109b890612296565b8a51610e2b90607e9060208e0190611ab2565b508951610e3f90607f9060208d0190611ab2565b50607b80546001600160a01b03808c166001600160a01b031992831617909255607c80548b8416908316179055606b8054928a1692909116919091179055610e8d8660016020020151611982565b604086810151606c80546001600160a01b03199081166001600160a01b039384169081179092556060808b0151607d8054909316941693909317905587516080908155602089015160825592880151608155908701516083559086015160845560a086015160855560c086015160865560e0860151608b55610100860151608c55610120860151608755610140860151608855610f3257610160850151608e55610f41565b610f3a6116a6565b60ff16608e555b608f805461ff0019166101008415150217905582518451600091610f6591906119a4565b905060005b600881101561118157858160088110610f9357634e487b7160e01b600052603260045260246000fd5b6020020151610fa157611181565b85610fad826001612493565b60088110610fcb57634e487b7160e01b600052603260045260246000fd5b6020020151156110e85785610fe1826001612493565b60088110610fff57634e487b7160e01b600052603260045260246000fd5b602002015186826008811061102457634e487b7160e01b600052603260045260246000fd5b6020020151106110465760405162461bcd60e51b81526004016109b890612164565b6110e56110de86611058846001612493565b6008811061107657634e487b7160e01b600052603260045260246000fd5b60200201516110d889856008811061109e57634e487b7160e01b600052603260045260246000fd5b60200201518a6110af876001612493565b600881106110cd57634e487b7160e01b600052603260045260246000fd5b6020020151906119b7565b906119a4565b83906119c3565b91505b6077604051806040016040528088846008811061111557634e487b7160e01b600052603260045260246000fd5b6020020151815260200187846008811061113f57634e487b7160e01b600052603260045260246000fd5b602090810291909101519091528254600181810185556000948552938290208351600290920201908155910151910155806111798161251c565b915050610f6a565b60198661118f6001846124ca565b600881106111ad57634e487b7160e01b600052603260045260246000fd5b602002015111156111d05760405162461bcd60e51b81526004016109b890612192565b846111dc6001836124ca565b600881106111fa57634e487b7160e01b600052603260045260246000fd5b60200201511580159061122f575084816008811061122857634e487b7160e01b600052603260045260246000fd5b6020020151155b61124b5760405162461bcd60e51b81526004016109b890612312565b816127101461126c5760405162461bcd60e51b81526004016109b8906122db565b5050608054606d55608154606e55608254606f55608a54607055608654607155608554607255608454607355608d54607455608f546076805460ff191661010080840460ff90811615159290921761ff00191664010000000090940491909116151502919091179055608e5460755580156112ed576000805461ff00191690555b5050505050505050505050565b608f54600160301b900460ff1681565b6033546001600160a01b031690565b600080606560009054906101000a90046001600160a01b03166001600160a01b031663feaf968c6040518163ffffffff1660e01b815260040160a06040518083038186803b15801561136a57600080fd5b505afa15801561137e573d6000803e3d6000fd5b505050506040513d601f19601f820116820180604052508101906113a29190611f96565b50505091505060008112156113b85760006113ba565b805b91505090565b600581565b607d546001600160a01b031681565b608f5460ff1681565b60408051600280825260608083018452926000929190602083019080368337505060685482519293506001600160a01b03169183915060009061143057634e487b7160e01b600052603260045260246000fd5b6001600160a01b03928316602091820292909201015260695482519116908290600190811061146f57634e487b7160e01b600052603260045260246000fd5b6001600160a01b0390921660209283029190910190910152905090565b608f546301000000900460ff1681565b600054610100900460ff16806114b5575060005460ff16155b6114d15760405162461bcd60e51b81526004016109b890612213565b600054610100900460ff161580156114fc576000805460ff1961ff0019909116610100171660011790555b606780546001600160a01b038087166001600160a01b031992831617909255606880548684169083161790556069805492851692909116919091179055801561154b576000805461ff00191690555b50505050565b60845481565b607f80546108f8906124e1565b606c546001600160a01b031681565b6066546040516370a0823160e01b81526000916001600160a01b0316906370a08231906115a4903090600401612049565b60206040518083038186803b1580156115bc57600080fd5b505afa1580156115d0573d6000803e3d6000fd5b505050506040513d601f19601f820116820180604052508101906115f49190611f7e565b905090565b606b546001600160a01b031681565b608a5481565b608f5465010000000000900460ff1681565b6079818154811061163057600080fd5b6000918252602090912060029091020180546001909101546001600160a01b03909116915082565b606d54606e54606f5460705460715460725460735460745460755460765460ff808216916101009004168b565b608b5481565b608e5481565b607b546001600160a01b031681565b608c5481565b600080606560009054906101000a90046001600160a01b03166001600160a01b031663313ce5676040518163ffffffff1660e01b815260040160206040518083038186803b1580156116f757600080fd5b505afa15801561170b573d6000803e3d6000fd5b505050506040513d601f19601f820116820180604052508101906113ba9190611fe5565b6077818154811061173f57600080fd5b60009182526020909120600290910201805460019091015490915082565b6117656117f9565b6001600160a01b031661177661130a565b6001600160a01b03161461179c5760405162461bcd60e51b81526004016109b890612261565b6001600160a01b0381166117c25760405162461bcd60e51b81526004016109b89061211e565b6117cb81611844565b50565b608d5481565b6066546001600160a01b031690565b60805481565b6078818154811061163057600080fd5b3390565b606a80546001600160a01b0319166001600160a01b0383161790556040517f3dab95f89f74034beeac9f9fe9bec350186cb958223e1791afb0dbb64859cabd90600090a150565b603380546001600160a01b038381166001600160a01b0319831681179093556040519116919082907f8be0079c531659141344cd1fd0a4f28419497f9722a3daafe3b4186f6b6457e090600090a35050565b600054610100900460ff16806118af575060005460ff16155b6118cb5760405162461bcd60e51b81526004016109b890612213565b600054610100900460ff161580156118f6576000805460ff1961ff0019909116610100171660011790555b6118fe6119cf565b611906611a42565b80156117cb576000805461ff001916905550565b600054610100900460ff1680611933575060005460ff16155b61194f5760405162461bcd60e51b81526004016109b890612213565b600054610100900460ff1615801561197a576000805460ff1961ff0019909116610100171660011790555b6119066119cf565b606680546001600160a01b0319166001600160a01b0392909216919091179055565b60006119b082846124ab565b9392505050565b60006119b082846124ca565b60006119b08284612493565b600054610100900460ff16806119e8575060005460ff16155b611a045760405162461bcd60e51b81526004016109b890612213565b600054610100900460ff16158015611906576000805460ff1961ff00199091166101001716600117905580156117cb576000805461ff001916905550565b600054610100900460ff1680611a5b575060005460ff16155b611a775760405162461bcd60e51b81526004016109b890612213565b600054610100900460ff16158015611aa2576000805460ff1961ff0019909116610100171660011790555b611906611aad6117f9565b611844565b828054611abe906124e1565b90600052602060002090601f016020900481019282611ae05760008555611b26565b82601f10611af957805160ff1916838001178555611b26565b82800160010185558215611b26579182015b82811115611b26578251825591602001919060010190611b0b565b50611b32929150611b36565b5090565b5b80821115611b325760008155600101611b37565b8035610bcf81612563565b600082601f830112611b66578081fd5b6040516080810181811067ffffffffffffffff82111715611b8957611b8961254d565b604052808360808101861015611b9d578384fd5b835b6004811015611bc8578135611bb381612563565b83526020928301929190910190600101611b9f565b509195945050505050565b600082601f830112611be3578081fd5b60405161018080820182811067ffffffffffffffff82111715611c0857611c0861254d565b6040528184828101871015611c1b578485fd5b8492505b600c831015611bc857803582526001929092019160209182019101611c1f565b600082601f830112611c4f578081fd5b60405161010080820182811067ffffffffffffffff82111715611c7457611c7461254d565b6040528184828101871015611c87578485fd5b8492505b6008831015611bc857803582526001929092019160209182019101611c8b565b80358015158114610bcf57600080fd5b600082601f830112611ccb578081fd5b813567ffffffffffffffff811115611ce557611ce561254d565b611cf8601f8201601f1916602001612469565b818152846020838601011115611d0c578283fd5b816020850160208301379081016020019190915292915050565b805169ffffffffffffffffffff81168114610bcf57600080fd5b600060208284031215611d51578081fd5b81356119b081612563565b600080600060608486031215611d70578182fd5b8335611d7b81612563565b92506020840135611d8b81612563565b91506040840135611d9b81612563565b809150509250925092565b60008060408385031215611db8578182fd5b8235611dc381612563565b946020939093013593505050565b60006020808385031215611de3578182fd5b825167ffffffffffffffff80821115611dfa578384fd5b818501915085601f830112611e0d578384fd5b815181811115611e1f57611e1f61254d565b8381029150611e2f848301612469565b8181528481019084860184860187018a1015611e49578788fd5b8795505b83861015611e6b578051835260019590950194918601918601611e4d565b5098975050505050505050565b6000806000806000806000806000806104c08b8d031215611e97578586fd5b8a3567ffffffffffffffff80821115611eae578788fd5b611eba8e838f01611cbb565b9b5060208d0135915080821115611ecf578788fd5b50611edc8d828e01611cbb565b995050611eeb60408c01611b4b565b9750611ef960608c01611b4b565b9650611f0760808c01611b4b565b9550611f168c60a08d01611b56565b9450611f268c6101208d01611bd3565b9350611f368c6102a08d01611c3f565b9250611f468c6103a08d01611c3f565b9150611f556104a08c01611cab565b90509295989b9194979a5092959850565b600060208284031215611f77578081fd5b5035919050565b600060208284031215611f8f578081fd5b5051919050565b600080600080600060a08688031215611fad578283fd5b611fb686611d26565b9450602086015193506040860151925060608601519150611fd960808701611d26565b90509295509295909350565b600060208284031215611ff6578081fd5b815160ff811681146119b0578182fd5b6000815180845260208085019450808401835b8381101561203e5781516001600160a01b031687529582019590820190600101612019565b509495945050505050565b6001600160a01b0391909116815260200190565b6001600160a01b03929092168252602082015260400190565b6000602082526119b06020830184612006565b901515815260200190565b6000602080835283518082850152825b818110156120c0578581018301518582016040015282016120a4565b818111156120d15783604083870101525b50601f01601f1916929092016040019392505050565b6020808252601a908201527f55706772616465206973206e6f7420656e61626c656420796574000000000000604082015260600190565b60208082526026908201527f4f776e61626c653a206e6577206f776e657220697320746865207a65726f206160408201526564647265737360d01b606082015260800190565b60208082526014908201527377726f6e67206f72646572206f662072616e6b7360601b604082015260600190565b6020808252602a908201527f6c6173742072616e6b206d757374206265206c657373207468616e206f7220656040820152697175616c20746f20323560b01b606082015260800190565b6020808252601d908201527f497320616c72656164792074686520696d706c656d656e746174696f6e000000604082015260600190565b6020808252602e908201527f496e697469616c697a61626c653a20636f6e747261637420697320616c72656160408201526d191e481a5b9a5d1a585b1a5e995960921b606082015260800190565b6020808252818101527f4f776e61626c653a2063616c6c6572206973206e6f7420746865206f776e6572604082015260600190565b60208082526025908201527f30333031206c61756e636820646174652063616e277420626520696e20746865604082015264081c185cdd60da1b606082015260800190565b6020808252601f908201527f7265776172642070657263656e7461676573206d757374206265203130302500604082015260600190565b60208082526025908201527f72616e6b7320616e642070657263656e7461676573206c656e677468206d69736040820152640dac2e8c6d60db1b606082015260800190565b6020808252601a908201527f6d73672e73656e646572206973206e6f7420616e206f776e6572000000000000604082015260600190565b90815260200190565b6000838252604060208301526123b06040830184612006565b949350505050565b918252602082015260400190565b988952602089019790975260408801959095526060870193909352608086019190915260a085015260c0840152151560e083015215156101008201526101200190565b9a8b5260208b019990995260408a01979097526060890195909552608088019390935260a087019190915260c086015260e0850152610100840152151561012083015215156101408201526101600190565b60ff91909116815260200190565b60405181810167ffffffffffffffff8111828210171561248b5761248b61254d565b604052919050565b600082198211156124a6576124a6612537565b500190565b60008160001904831182151516156124c5576124c5612537565b500290565b6000828210156124dc576124dc612537565b500390565b6002810460018216806124f557607f821691505b6020821081141561251657634e487b7160e01b600052602260045260246000fd5b50919050565b600060001982141561253057612530612537565b5060010190565b634e487b7160e01b600052601160045260246000fd5b634e487b7160e01b600052604160045260246000fd5b6001600160a01b03811681146117cb57600080fdfea2646970667358221220f4a1c2d6413cee9564afb91aa9b5c401a60d5edb98e0c80206ad12707951cc3164736f6c63430008000033a2646970667358221220fb9f7294246feaf992deab19f2859d7c9540ec2e67d78ed3ed12342dc4515cce64736f6c63430008000033",
  "devdoc": {
    "events": {
      "PoolCreated(address,string,string,uint256[12],uint256[8],uint256[8],bool)": {
        "params": {
          "variables": "The StakingPoolProxy is created with these specs: variables[0] = launchDate variables[1] = maturityTime variables[2] = lockTime variables[3] = sizeAllocation variables[4] = stakeApr variables[5] = prizeAmount variables[6] = usdPrizeAmount variables[7] = potentialCollabReward variables[8] = collaborativeRange variables[9] = stakingPoolTaxRate variables[10] = minimumStakeAmount variables[11] = oracleDeciamls"
        }
      }
    },
    "kind": "dev",
    "methods": {
      "createPoolProxy(address,address,string,string,uint256[12],uint256[8],uint256[8],bool)": {
        "params": {
          "_variables": "The StakingPoolProxy is created with these specs: variables[0] = launchDate variables[1] = maturityTime variables[2] = lockTime variables[3] = sizeAllocation variables[4] = stakeApr variables[5] = prizeAmount variables[6] = usdPrizeAmount variables[7] = potentialCollabReward variables[8] = collaborativeRange variables[9] = stakingPoolTaxRate variables[10] = minimumStakeAmount variables[11] = oracleDeciamls"
        }
      },
      "setNewStakingPoolImplementationAdr(address)": {
        "params": {
          "_ImpAdr": "address of the new StakingPoolImplementation contract."
        }
      }
    },
    "version": 1
  },
  "userdoc": {
    "kind": "user",
    "methods": {
      "createPoolProxy(address,address,string,string,uint256[12],uint256[8],uint256[8],bool)": {
        "notice": "creates a StakingPoolProxy for the  provided stakingPoolImplementationAdr and initializes it so that the pool is ready to be used."
      },
      "setNewStakingPoolImplementationAdr(address)": {
        "notice": "This function is called whenever we want to use a new StakingPoolImplementation to create our proxies for."
      },
      "setNewSuperAdmin(address)": {
        "notice": "Changes superAdmin's address so that new StakingPoolProxies have this new superAdmin"
      }
    },
    "version": 1
  },
  "storageLayout": {
    "storage": [
      {
        "astId": 1776,
        "contract": "contracts/Staking/StakingPoolFactory.sol:StakingPoolFactory",
        "label": "_poolCreators",
        "offset": 0,
        "slot": "0",
        "type": "t_struct(Role)1995_storage"
      },
      {
        "astId": 2087,
        "contract": "contracts/Staking/StakingPoolFactory.sol:StakingPoolFactory",
        "label": "totemToken",
        "offset": 0,
        "slot": "1",
        "type": "t_contract(ITotemToken)7577"
      },
      {
        "astId": 2090,
        "contract": "contracts/Staking/StakingPoolFactory.sol:StakingPoolFactory",
        "label": "rewardManager",
        "offset": 0,
        "slot": "2",
        "type": "t_contract(IRewardManager)7484"
      },
      {
        "astId": 2092,
        "contract": "contracts/Staking/StakingPoolFactory.sol:StakingPoolFactory",
        "label": "superAdmin",
        "offset": 0,
        "slot": "3",
        "type": "t_address"
      },
      {
        "astId": 2094,
        "contract": "contracts/Staking/StakingPoolFactory.sol:StakingPoolFactory",
        "label": "stakingPoolImplementationAdr",
        "offset": 0,
        "slot": "4",
        "type": "t_address"
      },
      {
        "astId": 2096,
        "contract": "contracts/Staking/StakingPoolFactory.sol:StakingPoolFactory",
        "label": "swapRouter",
        "offset": 0,
        "slot": "5",
        "type": "t_address"
      },
      {
        "astId": 2098,
        "contract": "contracts/Staking/StakingPoolFactory.sol:StakingPoolFactory",
        "label": "usdToken",
        "offset": 0,
        "slot": "6",
        "type": "t_address"
      },
      {
        "astId": 2100,
        "contract": "contracts/Staking/StakingPoolFactory.sol:StakingPoolFactory",
        "label": "stakingPoolTaxRate",
        "offset": 0,
        "slot": "7",
        "type": "t_uint256"
      },
      {
        "astId": 2102,
        "contract": "contracts/Staking/StakingPoolFactory.sol:StakingPoolFactory",
        "label": "minimumStakeAmount",
        "offset": 0,
        "slot": "8",
        "type": "t_uint256"
      }
    ],
    "types": {
      "t_address": {
        "encoding": "inplace",
        "label": "address",
        "numberOfBytes": "20"
      },
      "t_bool": {
        "encoding": "inplace",
        "label": "bool",
        "numberOfBytes": "1"
      },
      "t_contract(IRewardManager)7484": {
        "encoding": "inplace",
        "label": "contract IRewardManager",
        "numberOfBytes": "20"
      },
      "t_contract(ITotemToken)7577": {
        "encoding": "inplace",
        "label": "contract ITotemToken",
        "numberOfBytes": "20"
      },
      "t_mapping(t_address,t_bool)": {
        "encoding": "mapping",
        "key": "t_address",
        "label": "mapping(address => bool)",
        "numberOfBytes": "32",
        "value": "t_bool"
      },
      "t_struct(Role)1995_storage": {
        "encoding": "inplace",
        "label": "struct Roles.Role",
        "members": [
          {
            "astId": 1994,
            "contract": "contracts/Staking/StakingPoolFactory.sol:StakingPoolFactory",
            "label": "bearer",
            "offset": 0,
            "slot": "0",
            "type": "t_mapping(t_address,t_bool)"
          }
        ],
        "numberOfBytes": "32"
      },
      "t_uint256": {
        "encoding": "inplace",
        "label": "uint256",
        "numberOfBytes": "32"
      }
    }
  }
}